{
  "_format": "hh-sol-artifact-1",
  "contractName": "Marketplace",
  "sourceName": "contracts/Marketplace.sol",
  "abi": [
    {
      "inputs": [],
      "name": "EmptyProductName",
      "type": "error"
    },
    {
      "inputs": [
        {
          "internalType": "uint256",
          "name": "expected",
          "type": "uint256"
        },
        {
          "internalType": "uint256",
          "name": "received",
          "type": "uint256"
        }
      ],
      "name": "IncorrectPayment",
      "type": "error"
    },
    {
      "inputs": [],
      "name": "InvalidProductPrice",
      "type": "error"
    },
    {
      "inputs": [
        {
          "internalType": "uint256",
          "name": "id",
          "type": "uint256"
        }
      ],
      "name": "ProductAlreadySold",
      "type": "error"
    },
    {
      "inputs": [
        {
          "internalType": "uint256",
          "name": "id",
          "type": "uint256"
        }
      ],
      "name": "ProductDoesNotExist",
      "type": "error"
    },
    {
      "inputs": [],
      "name": "SellerCannotBuyOwnProduct",
      "type": "error"
    },
    {
      "inputs": [],
      "name": "SellerPaymentFailed",
      "type": "error"
    },
    {
      "anonymous": false,
      "inputs": [
        {
          "indexed": true,
          "internalType": "uint256",
          "name": "id",
          "type": "uint256"
        },
        {
          "indexed": false,
          "internalType": "string",
          "name": "name",
          "type": "string"
        },
        {
          "indexed": false,
          "internalType": "uint256",
          "name": "price",
          "type": "uint256"
        },
        {
          "indexed": true,
          "internalType": "address",
          "name": "owner",
          "type": "address"
        },
        {
          "indexed": false,
          "internalType": "bool",
          "name": "sold",
          "type": "bool"
        }
      ],
      "name": "ProductListed",
      "type": "event"
    },
    {
      "anonymous": false,
      "inputs": [
        {
          "indexed": true,
          "internalType": "uint256",
          "name": "id",
          "type": "uint256"
        },
        {
          "indexed": false,
          "internalType": "string",
          "name": "name",
          "type": "string"
        },
        {
          "indexed": false,
          "internalType": "uint256",
          "name": "price",
          "type": "uint256"
        },
        {
          "indexed": true,
          "internalType": "address",
          "name": "owner",
          "type": "address"
        },
        {
          "indexed": false,
          "internalType": "bool",
          "name": "sold",
          "type": "bool"
        }
      ],
      "name": "ProductSold",
      "type": "event"
    },
    {
      "inputs": [
        {
          "internalType": "string",
          "name": "_name",
          "type": "string"
        },
        {
          "internalType": "uint256",
          "name": "_price",
          "type": "uint256"
        }
      ],
      "name": "addProduct",
      "outputs": [],
      "stateMutability": "nonpayable",
      "type": "function"
    },
    {
      "inputs": [
        {
          "internalType": "uint256",
          "name": "_id",
          "type": "uint256"
        }
      ],
      "name": "buyProduct",
      "outputs": [],
      "stateMutability": "payable",
      "type": "function"
    },
    {
      "inputs": [],
      "name": "getAvailableProducts",
      "outputs": [
        {
          "components": [
            {
              "internalType": "uint256",
              "name": "id",
              "type": "uint256"
            },
            {
              "internalType": "string",
              "name": "name",
              "type": "string"
            },
            {
              "internalType": "uint256",
              "name": "price",
              "type": "uint256"
            },
            {
              "internalType": "address payable",
              "name": "owner",
              "type": "address"
            },
            {
              "internalType": "bool",
              "name": "sold",
              "type": "bool"
            }
          ],
          "internalType": "struct Marketplace.Product[]",
          "name": "",
          "type": "tuple[]"
        }
      ],
      "stateMutability": "view",
      "type": "function"
    },
    {
      "inputs": [
        {
          "internalType": "uint256",
          "name": "_id",
          "type": "uint256"
        }
      ],
      "name": "getProduct",
      "outputs": [
        {
          "components": [
            {
              "internalType": "uint256",
              "name": "id",
              "type": "uint256"
            },
            {
              "internalType": "string",
              "name": "name",
              "type": "string"
            },
            {
              "internalType": "uint256",
              "name": "price",
              "type": "uint256"
            },
            {
              "internalType": "address payable",
              "name": "owner",
              "type": "address"
            },
            {
              "internalType": "bool",
              "name": "sold",
              "type": "bool"
            }
          ],
          "internalType": "struct Marketplace.Product",
          "name": "",
          "type": "tuple"
        }
      ],
      "stateMutability": "view",
      "type": "function"
    },
    {
      "inputs": [],
      "name": "getProductCount",
      "outputs": [
        {
          "internalType": "uint256",
          "name": "",
          "type": "uint256"
        }
      ],
      "stateMutability": "view",
      "type": "function"
    },
    {
      "inputs": [],
      "name": "name",
      "outputs": [
        {
          "internalType": "string",
          "name": "",
          "type": "string"
        }
      ],
      "stateMutability": "view",
      "type": "function"
    },
    {
      "inputs": [],
      "name": "productCount",
      "outputs": [
        {
          "internalType": "uint256",
          "name": "",
          "type": "uint256"
        }
      ],
      "stateMutability": "view",
      "type": "function"
    },
    {
      "inputs": [
        {
          "internalType": "uint256",
          "name": "",
          "type": "uint256"
        }
      ],
      "name": "products",
      "outputs": [
        {
          "internalType": "uint256",
          "name": "id",
          "type": "uint256"
        },
        {
          "internalType": "string",
          "name": "name",
          "type": "string"
        },
        {
          "internalType": "uint256",
          "name": "price",
          "type": "uint256"
        },
        {
          "internalType": "address payable",
          "name": "owner",
          "type": "address"
        },
        {
          "internalType": "bool",
          "name": "sold",
          "type": "bool"
        }
      ],
      "stateMutability": "view",
      "type": "function"
    }
  ],
  "bytecode": "0x608060405234801561001057600080fd5b50610e4e806100206000396000f3fe60806040526004361061007b5760003560e01c80638642269e1161004e5780638642269e14610151578063b15247d914610166578063b9db15b414610186578063e0f6ef87146101b357600080fd5b806306fdde03146100805780630ff4e2b4146100df5780634a348da9146101015780637acc0b2014610120575b600080fd5b34801561008c57600080fd5b506100c96040518060400160405280601981526020017f446563656e7472616c697a6564204d61726b6574706c6163650000000000000081525081565b6040516100d691906109e4565b60405180910390f35b3480156100eb57600080fd5b506100f46101c9565b6040516100d69190610a51565b34801561010d57600080fd5b506000545b6040519081526020016100d6565b34801561012c57600080fd5b5061014061013b366004610ab5565b6103d2565b6040516100d6959493929190610ace565b61016461015f366004610ab5565b610498565b005b34801561017257600080fd5b50610164610181366004610b0f565b6106c3565b34801561019257600080fd5b506101a66101a1366004610ab5565b61082f565b6040516100d69190610b87565b3480156101bf57600080fd5b5061011260005481565b6060600060015b600054811161021957600081815260026020526040902060030154600160a01b900460ff16610207578161020381610b9a565b9250505b8061021181610b9a565b9150506101d0565b5060008167ffffffffffffffff81111561023557610235610bc1565b60405190808252806020026020018201604052801561026e57816020015b61025b610964565b8152602001906001900390816102535790505b509050600060015b60005481116103c957600081815260026020526040902060030154600160a01b900460ff166103b757600260008281526020019081526020016000206040518060a0016040529081600082015481526020016001820180546102d790610bd7565b80601f016020809104026020016040519081016040528092919081815260200182805461030390610bd7565b80156103505780601f1061032557610100808354040283529160200191610350565b820191906000526020600020905b81548152906001019060200180831161033357829003601f168201915b5050509183525050600282015460208201526003909101546001600160a01b0381166040830152600160a01b900460ff161515606090910152835184908490811061039d5761039d610c11565b602002602001018190525081806103b390610b9a565b9250505b806103c181610b9a565b915050610276565b50909392505050565b600260205260009081526040902080546001820180549192916103f490610bd7565b80601f016020809104026020016040519081016040528092919081815260200182805461042090610bd7565b801561046d5780601f106104425761010080835404028352916020019161046d565b820191906000526020600020905b81548152906001019060200180831161045057829003601f168201915b5050505060028301546003909301549192916001600160a01b0381169150600160a01b900460ff1685565b60015460ff16156104f05760405162461bcd60e51b815260206004820152601f60248201527f5265656e7472616e637947756172643a207265656e7472616e742063616c6c0060448201526064015b60405180910390fd5b6001805460ff19168117905560008181526002602052604090208054158061051a57506000548154115b1561053b5760405163b4705b1d60e01b8152600481018390526024016104e7565b6003810154600160a01b900460ff161561056b5760405163178600a360e11b8152600481018390526024016104e7565b6003810154336001600160a01b039091160361059a57604051633c3147ad60e21b815260040160405180910390fd5b806002015434146105cd576002810154604051630d35e92160e01b815260048101919091523460248201526044016104e7565b600381018054600160a01b6001600160a81b031982163360ff60a01b191617179091556040516001600160a01b0390911690600090829034908381818185875af1925050503d806000811461063e576040519150601f19603f3d011682016040523d82523d6000602084013e610643565b606091505b5050905080610665576040516354bc27c960e01b815260040160405180910390fd5b336001600160a01b0316847f90498ce9c9215a4ad05ee62366cbad5de3a51cf526ae6194fdca4cc272207afa85600101866002015460016040516106ab93929190610c27565b60405180910390a350506001805460ff191690555050565b60008290036106e55760405163680c799d60e11b815260040160405180910390fd5b806000036107065760405163a9dd91a160e01b815260040160405180910390fd5b60008054908061071583610b9a565b91905055506040518060a00160405280600054815260200184848080601f016020809104026020016040519081016040528093929190818152602001838380828437600092018290525093855250505060208083018590523360408085019190915260609093018290528154825260028152919020825181559082015160018201906107a19082610d16565b5060408281015160028301556060830151600390920180546080909401511515600160a01b026001600160a81b03199094166001600160a01b03909316929092179290921790556000805491513392917f07c1646479055a4fb6f43c8e8bd7b9c4930ef945f3b2b85bd2a2e9af9d0b1a769161082291889188918891610dd6565b60405180910390a3505050565b610837610964565b6000828152600260205260409020541580610853575060005482115b156108745760405163b4705b1d60e01b8152600481018390526024016104e7565b600260008381526020019081526020016000206040518060a0016040529081600082015481526020016001820180546108ac90610bd7565b80601f01602080910402602001604051908101604052809291908181526020018280546108d890610bd7565b80156109255780601f106108fa57610100808354040283529160200191610925565b820191906000526020600020905b81548152906001019060200180831161090857829003601f168201915b5050509183525050600282015460208201526003909101546001600160a01b0381166040830152600160a01b900460ff16151560609091015292915050565b6040518060a0016040528060008152602001606081526020016000815260200160006001600160a01b031681526020016000151581525090565b6000815180845260005b818110156109c4576020818501810151868301820152016109a8565b506000602082860101526020601f19601f83011685010191505092915050565b6020815260006109f7602083018461099e565b9392505050565b805182526000602082015160a06020850152610a1d60a085018261099e565b604084810151908601526060808501516001600160a01b031690860152608093840151151593909401929092525090919050565b600060208083016020845280855180835260408601915060408160051b87010192506020870160005b82811015610aa857603f19888603018452610a968583516109fe565b94509285019290850190600101610a7a565b5092979650505050505050565b600060208284031215610ac757600080fd5b5035919050565b85815260a060208201526000610ae760a083018761099e565b6040830195909552506001600160a01b03929092166060830152151560809091015292915050565b600080600060408486031215610b2457600080fd5b833567ffffffffffffffff80821115610b3c57600080fd5b818601915086601f830112610b5057600080fd5b813581811115610b5f57600080fd5b876020828501011115610b7157600080fd5b6020928301989097509590910135949350505050565b6020815260006109f760208301846109fe565b600060018201610bba57634e487b7160e01b600052601160045260246000fd5b5060010190565b634e487b7160e01b600052604160045260246000fd5b600181811c90821680610beb57607f821691505b602082108103610c0b57634e487b7160e01b600052602260045260246000fd5b50919050565b634e487b7160e01b600052603260045260246000fd5b606081526000808554610c3981610bd7565b8060608601526080600180841660008114610c5b5760018114610c7757610ca9565b60ff1985166080890152608084151560051b8901019550610ca9565b8a60005260208060002060005b86811015610c9f5781548b8201870152908401908201610c84565b8a01608001975050505b5050505050602083019490945250901515604090910152919050565b601f821115610d11576000816000526020600020601f850160051c81016020861015610cee5750805b601f850160051c820191505b81811015610d0d57828155600101610cfa565b5050505b505050565b815167ffffffffffffffff811115610d3057610d30610bc1565b610d4481610d3e8454610bd7565b84610cc5565b602080601f831160018114610d795760008415610d615750858301515b600019600386901b1c1916600185901b178555610d0d565b600085815260208120601f198616915b82811015610da857888601518255948401946001909101908401610d89565b5085821015610dc65787850151600019600388901b60f8161c191681555b5050505050600190811b01905550565b606081528360608201528385608083013760006080858301015260006080601f19601f870116830101905083602083015282151560408301529594505050505056fea2646970667358221220bacc080cac50a92b49379829caf2736d3e530c5ada4272fb5163054cf609b3c264736f6c63430008180033",
  "linkReferences": {},
  "deployedLinkReferences": {}
}